S0120000536D6172745F486F6D652E7372656323
S11300000C942A000C9434000C9434000C943400A6
S11300100C9434000C9434000C9434000C9434008C
S11300200C9434000C9434000C9434000C9434007C
S11300300C9434000C9434000C9434000C9434006C
S11300400C9434000C9434000C9434000C9434005C
S11300500C94340011241FBECFE5D8E0DEBFCDBF21
S11300600E949D000C944F010C940000811111C05A
S113007042E060EA81E00E94B30042E061E080E097
S11300800E94B30040E060E481E00E94B30080E19C
S113009010C040E060EA81E00E94B30040E061E00B
S11300A080E00E94B30042E060E481E00E94B3007B
S11300B080E021E040E060E00E941C010895CF93BD
S11300C0C82F0E943600C11103C00E94780006C0E8
S11300D081E00E948C0082E00E948C00CF91089500
S11300E00E948900089560E070E00E94270108954D
S11300F040E061E083E00E94B30042E062E083E01C
S11301000E94B30087E60E94370108950E943E01D1
S113011008950E9443010895813019F0823039F026
S1130120089542E061E083E00E94B300089542E054
S113013062E083E00E94B3000895CF93DF931F929F
S1130140CDB7DEB7198280E00E945F000E9486006E
S11301508823E1F3CE0101960E94700089810E94F8
S113016073001982F3CF8130F9F030F08230A1F1BD
S1130170833009F449C00895413049F018F0423001
S113018079F008958AB3609568236ABB08958AB3A9
S1130190962F909589238ABB8BB3682B6BBB0895EC
S11301A08AB3682B6ABB0895413049F018F0423095
S11301B079F0089587B36095682367BB089587B382
S11301C0962F9095892387BB88B3682B68BB0895C5
S11301D087B3682B67BB0895413049F018F042306B
S11301E079F0089584B36095682364BB089584B35B
S11301F0962F9095892384BB85B3682B65BB08959E
S113020084B3682B64BB0895413049F018F0423040
S113021079F0089581B36095682361BB089581B333
S1130220962F9095892381BB82B3682B62BB089576
S113023081B3682B61BB0895862B482B422B406405
S11302404DB922952695269523702EB908958FB918
S113025080E005C08F5F95E09A95F1F700007799EB
S113026002C08436B8F38FB1FB018083089598E10E
S11302709AB996E890BD89B910BC08958BB1881FCE
S11302808827881F0895CF93DF93EC010E943E01D5
S1130290882311F08CB18883DF91CF910895F8946D
S10502A0FFCF8A
S9030000FC
