:100000000C942A000C9434000C9434000C943400AA
:100010000C9434000C9434000C9434000C94340090
:100020000C9434000C9434000C9434000C94340080
:100030000C9434000C9434000C9434000C94340070
:100040000C9434000C9434000C9434000C94340060
:100050000C94340011241FBECFE5D8E0DEBFCDBF25
:100060000E9480000C9434010C940000811116C091
:1000700021E040E060E080E10E94010142E060EAAE
:1000800081E00E94980042E061E080E00E949800D8
:1000900040E060E481E00E949800089521E040E0A3
:1000A00060E080E00E94010140E060EA81E00E949F
:1000B000980040E061E080E00E94980042E060E447
:1000C00081E00E94980008950E947D00089560E0FC
:1000D00070E00E940C01089540E061E083E00E941E
:1000E000980042E062E083E00E94980087E60E9468
:1000F0001C0108950E94230108950E94280108957B
:10010000CF93DF931F92CDB7DEB719820E946C00A8
:1001100080E00E9436000E947A008823E1F3CE013D
:1001200001960E94640089810E9467001982F3CFC2
:100130008130F9F030F08230A1F1833009F449C008
:100140000895413049F018F0423079F008958AB3AB
:10015000609568236ABB08958AB3962F909589238A
:100160008ABB8BB3682B6BBB08958AB3682B6ABBC1
:100170000895413049F018F0423079F0089587B37E
:100180006095682367BB089587B3962F9095892360
:1001900087BB88B3682B68BB089587B3682B67BBA0
:1001A0000895413049F018F0423079F0089584B351
:1001B0006095682364BB089584B3962F9095892336
:1001C00084BB85B3682B65BB089584B3682B64BB7F
:1001D0000895413049F018F0423079F0089581B324
:1001E0006095682361BB089581B3962F909589230C
:1001F00081BB82B3682B62BB089581B3682B61BB5E
:100200000895862B482B422B40644DB922952695A4
:10021000269523702EB908958FB980E005C08F5FB1
:1002200095E09A95F1F70000779902C08436B8F30B
:100230008FB1FB018083089598E19AB996E890BD4B
:1002400089B910BC08958BB1881F8827881F08952D
:10025000CF93DF93EC010E942301882311F08CB12E
:0C0260008883DF91CF910895F894FFCFC0
:00000001FF
