:100000000C942A000C9434000C9434000C943400AA
:100010000C9434000C9434000C9434000C94340090
:100020000C9434000C9434000C9434000C94340080
:100030000C9434000C9434000C9434000C94340070
:100040000C9434000C9434000C9434000C94340060
:100050000C94340011241FBECFE5D8E0DEBFCDBF25
:100060000E94CC000C94B2010C940000CF93C82FD6
:10007000811111C042E060EA81E00E94DE0042E0AE
:1000800061E080E00E94DE0040E060E481E00E94E8
:10009000DE0080E110C040E060EA81E00E94DE0006
:1000A00040E061E080E00E94DE0042E060E481E048
:1000B0000E94DE0080E021E040E060E00E949701C5
:1000C000C11103C0CF910C948D0081E00E949A0071
:1000D00082E0CF910C949A00BC0180E00C94A401C2
:1000E000833681F028F4813649F0823649F008954C
:1000F000853671F050F0863669F0089581E003C0CE
:1001000081E004C082E00C94A70082E00C94B4006B
:1001100081E001C082E00C94C10040E061E083E036
:100120000E94DE0042E062E083E00E94DE0087E69B
:100130000C94AB01813019F0823021F0089542E037
:1001400061E002C042E062E083E00C94DE008130B6
:1001500019F0823021F0089541E061E002C041E0F1
:1001600062E083E00C944301813019F0823021F089
:10017000089540E061E002C040E062E083E00C945A
:100180004301813019F0823019F0089561E001C017
:1001900062E083E00C947F01CF93DF931F92CDB791
:1001A000DEB7198281E00E943600CE0101960E94DE
:1001B0006C0089810E9470001982F7CF8130F1F0C4
:1001C00030F0823091F1833009F446C00895413017
:1001D00041F018F0423071F008958AB360956823B9
:1001E0000BC08AB3962F909589238ABB8BB3682B5B
:1001F0006BBB08958AB3682B6ABB0895413041F008
:1002000018F0423071F0089587B3609568230BC0F1
:1002100087B3962F9095892387BB88B3682B68BBDB
:10022000089587B3682B67BB0895413041F018F0FB
:10023000423071F0089584B3609568230BC084B395
:10024000962F9095892384BB85B3682B65BB089551
:1002500084B3682B64BB0895413041F018F04230FC
:1002600071F0089581B3609568230BC081B3962F18
:100270009095892381BB82B3682B62BB089581B3BB
:10028000682B61BB0895813099F028F08230E9F045
:10029000833041F10895442319F0413029F0089545
:1002A0008BB36095682302C08BB3682B6BBB08953A
:1002B000442319F0413029F0089588B360956823EC
:1002C00002C088B3682B68BB0895442319F04130FD
:1002D00029F0089585B36095682302C085B3682B23
:1002E00065BB0895442319F0413029F0089582B385
:1002F0006095682302C082B3682B62BB0895813089
:1003000051F028F0823059F0833069F008958BB3B2
:1003100068276BBB089588B3682768BB089585B3C9
:10032000682765BB089582B3682762BB0895922F42
:100330009064492B842B482F462B4DB92295269546
:10034000269523702EB908958FB9779B03C08FB17E
:10035000FB018083089598E19AB996E890BD89B928
:0803600010BC0895F894FFCFD2
:00000001FF
