S0120000536D6172745F486F6D652E7372656323
S11300000C942A000C9434000C9434000C943400A6
S11300100C9434000C9434000C9434000C9434008C
S11300200C9434000C9434000C9434000C9434007C
S11300300C9434000C9434000C9434000C9434006C
S11300400C9434000C9434000C9434000C9434005C
S11300500C94340011241FBECFE5D8E0DEBFCDBF21
S11300600E9492000C9492010C94000021E040E064
S113007060E081110FC080E10E947E0142E060EAED
S113008081E00E94C50042E061E080E00E94C5007A
S113009040E00EC080E00E947E0140E060EA81E022
S11300A00E94C50040E061E080E00E94C50042E09B
S11300B060E481E00C94C500BC0180E00C948B01E9
S11300C0813019F0823021F0089542E061E002C0ED
S11300D042E062E083E00C94C500813019F0823084
S11300E021F0089541E061E002C041E062E083E074
S11300F00C942A01813019F0823021F0089540E0F7
S113010061E002C040E062E083E00C942A018130A7
S113011019F0823019F0089561E001C062E083E0D3
S11301200C946601CF93DF931F92CDB7DEB719828B
S113013081E00E94600082E00E94600081E00E94F1
S11301403600CE0101960E945C008981833681F0DD
S113015030F4813659F08236B1F481E00EC0853630
S113016079F050F0863679F482E00BC081E001C06A
S113017082E00E946D0007C082E00E947A0003C002
S113018081E00E9487001982DCCF8130F1F030F0E9
S1130190823091F1833009F446C00895413041F032
S11301A018F0423071F008958AB3609568230BC04B
S11301B08AB3962F909589238ABB8BB3682B6BBB2C
S11301C008958AB3682B6ABB0895413041F018F052
S11301D0423071F0089587B3609568230BC087B3EC
S11301E0962F9095892387BB88B3682B68BB0895A5
S11301F087B3682B67BB0895413041F018F0423053
S113020071F0089584B3609568230BC084B3962F6E
S11302109095892384BB85B3682B65BB089584B30B
S1130220682B64BB0895413041F018F0423071F0FE
S1130230089581B3609568230BC081B3962F909580
S1130240892381BB82B3682B62BB089581B3682B79
S113025061BB0895813099F028F08230E9F0833051
S113026041F10895442319F0413029F008958BB3E6
S11302706095682302C08BB3682B6BBB089544233D
S113028019F0413029F0089588B36095682302C0BD
S113029088B3682B68BB0895442319F0413029F0D2
S11302A0089585B36095682302C085B3682B65BB48
S11302B00895442319F0413029F0089582B36095DC
S11302C0682302C082B3682B62BB0895813051F069
S11302D028F0823059F0833069F008958BB3682791
S11302E06BBB089588B3682768BB089585B36827F6
S11302F065BB089582B3682762BB0895922F90640A
S1130300492B842B482F462B4DB9229526952695AB
S113031023702EB908958FB9779B03C08FB1FB0169
S10B032080830895F894FFCFD7
S9030000FC
